{
  "_format": "hh-sol-artifact-1",
  "contractName": "Contact",
  "sourceName": "contracts/contact.sol",
  "abi": [
    {
      "anonymous": false,
      "inputs": [
        {
          "indexed": true,
          "internalType": "uint256",
          "name": "entryId",
          "type": "uint256"
        }
      ],
      "name": "EntryStored",
      "type": "event"
    },
    {
      "inputs": [
        {
          "internalType": "uint256",
          "name": "",
          "type": "uint256"
        }
      ],
      "name": "contactEntries",
      "outputs": [
        {
          "internalType": "string",
          "name": "name",
          "type": "string"
        },
        {
          "internalType": "uint128",
          "name": "phone_number",
          "type": "uint128"
        },
        {
          "internalType": "string",
          "name": "email",
          "type": "string"
        },
        {
          "internalType": "enum Contact.Subject",
          "name": "_subject",
          "type": "uint8"
        },
        {
          "internalType": "string",
          "name": "feedback",
          "type": "string"
        }
      ],
      "stateMutability": "view",
      "type": "function"
    },
    {
      "inputs": [],
      "name": "entryCount",
      "outputs": [
        {
          "internalType": "uint256",
          "name": "",
          "type": "uint256"
        }
      ],
      "stateMutability": "view",
      "type": "function"
    },
    {
      "inputs": [
        {
          "internalType": "uint256",
          "name": "_entryId",
          "type": "uint256"
        }
      ],
      "name": "getValues",
      "outputs": [
        {
          "internalType": "string",
          "name": "",
          "type": "string"
        },
        {
          "internalType": "uint128",
          "name": "",
          "type": "uint128"
        },
        {
          "internalType": "string",
          "name": "",
          "type": "string"
        },
        {
          "internalType": "enum Contact.Subject",
          "name": "",
          "type": "uint8"
        },
        {
          "internalType": "string",
          "name": "",
          "type": "string"
        }
      ],
      "stateMutability": "view",
      "type": "function"
    },
    {
      "inputs": [
        {
          "internalType": "string",
          "name": "_name",
          "type": "string"
        },
        {
          "internalType": "uint128",
          "name": "_phone_number",
          "type": "uint128"
        },
        {
          "internalType": "string",
          "name": "_email",
          "type": "string"
        },
        {
          "internalType": "enum Contact.Subject",
          "name": "_subject",
          "type": "uint8"
        },
        {
          "internalType": "string",
          "name": "_feedback",
          "type": "string"
        }
      ],
      "name": "storeValues",
      "outputs": [],
      "stateMutability": "nonpayable",
      "type": "function"
    }
  ],
  "bytecode": "0x608060405234801561001057600080fd5b50610ec5806100206000396000f3fe608060405234801561001057600080fd5b506004361061004c5760003560e01c80630cbb0f8314610051578063964f87f11461006f578063a6129ab5146100a3578063b29e522c146100bf575b600080fd5b6100596100f3565b60405161006691906106c3565b60405180910390f35b6100896004803603810190610084919061071e565b6100f9565b60405161009a95949392919061087d565b60405180910390f35b6100bd60048036038101906100b89190610a6b565b6102f0565b005b6100d960048036038101906100d4919061071e565b610455565b6040516100ea95949392919061087d565b60405180910390f35b60015481565b600060205280600052604060002060009150905080600001805461011c90610b69565b80601f016020809104026020016040519081016040528092919081815260200182805461014890610b69565b80156101955780601f1061016a57610100808354040283529160200191610195565b820191906000526020600020905b81548152906001019060200180831161017857829003601f168201915b5050505050908060010160009054906101000a90046fffffffffffffffffffffffffffffffff16908060020180546101cc90610b69565b80601f01602080910402602001604051908101604052809291908181526020018280546101f890610b69565b80156102455780601f1061021a57610100808354040283529160200191610245565b820191906000526020600020905b81548152906001019060200180831161022857829003601f168201915b5050505050908060030160009054906101000a900460ff169080600401805461026d90610b69565b80601f016020809104026020016040519081016040528092919081815260200182805461029990610b69565b80156102e65780601f106102bb576101008083540402835291602001916102e6565b820191906000526020600020905b8154815290600101906020018083116102c957829003601f168201915b5050505050905085565b600060015490506040518060a00160405280878152602001866fffffffffffffffffffffffffffffffff16815260200185815260200184600281111561033957610338610806565b5b81526020018381525060008083815260200190815260200160002060008201518160000190816103699190610d46565b5060208201518160010160006101000a8154816fffffffffffffffffffffffffffffffff02191690836fffffffffffffffffffffffffffffffff16021790555060408201518160020190816103be9190610d46565b5060608201518160030160006101000a81548160ff021916908360028111156103ea576103e9610806565b5b021790555060808201518160040190816104049190610d46565b509050506001600081548092919061041b90610e47565b9190505550807f57a8a8eb974ffed2f4b03ad1f854132fa31f7cf742885100632cdf91c26c4bb760405160405180910390a2505050505050565b6060600060606000606060008087815260200190815260200160002060000160008088815260200190815260200160002060010160009054906101000a90046fffffffffffffffffffffffffffffffff166000808981526020019081526020016000206002016000808a815260200190815260200160002060030160009054906101000a900460ff166000808b81526020019081526020016000206004018480546104ff90610b69565b80601f016020809104026020016040519081016040528092919081815260200182805461052b90610b69565b80156105785780601f1061054d57610100808354040283529160200191610578565b820191906000526020600020905b81548152906001019060200180831161055b57829003601f168201915b5050505050945082805461058b90610b69565b80601f01602080910402602001604051908101604052809291908181526020018280546105b790610b69565b80156106045780601f106105d957610100808354040283529160200191610604565b820191906000526020600020905b8154815290600101906020018083116105e757829003601f168201915b5050505050925080805461061790610b69565b80601f016020809104026020016040519081016040528092919081815260200182805461064390610b69565b80156106905780601f1061066557610100808354040283529160200191610690565b820191906000526020600020905b81548152906001019060200180831161067357829003601f168201915b505050505090509450945094509450945091939590929450565b6000819050919050565b6106bd816106aa565b82525050565b60006020820190506106d860008301846106b4565b92915050565b6000604051905090565b600080fd5b600080fd5b6106fb816106aa565b811461070657600080fd5b50565b600081359050610718816106f2565b92915050565b600060208284031215610734576107336106e8565b5b600061074284828501610709565b91505092915050565b600081519050919050565b600082825260208201905092915050565b60005b8381101561078557808201518184015260208101905061076a565b60008484015250505050565b6000601f19601f8301169050919050565b60006107ad8261074b565b6107b78185610756565b93506107c7818560208601610767565b6107d081610791565b840191505092915050565b60006fffffffffffffffffffffffffffffffff82169050919050565b610800816107db565b82525050565b7f4e487b7100000000000000000000000000000000000000000000000000000000600052602160045260246000fd5b6003811061084657610845610806565b5b50565b600081905061085782610835565b919050565b600061086782610849565b9050919050565b6108778161085c565b82525050565b600060a082019050818103600083015261089781886107a2565b90506108a660208301876107f7565b81810360408301526108b881866107a2565b90506108c7606083018561086e565b81810360808301526108d981846107a2565b90509695505050505050565b600080fd5b600080fd5b7f4e487b7100000000000000000000000000000000000000000000000000000000600052604160045260246000fd5b61092782610791565b810181811067ffffffffffffffff82111715610946576109456108ef565b5b80604052505050565b60006109596106de565b9050610965828261091e565b919050565b600067ffffffffffffffff821115610985576109846108ef565b5b61098e82610791565b9050602081019050919050565b82818337600083830152505050565b60006109bd6109b88461096a565b61094f565b9050828152602081018484840111156109d9576109d86108ea565b5b6109e484828561099b565b509392505050565b600082601f830112610a0157610a006108e5565b5b8135610a118482602086016109aa565b91505092915050565b610a23816107db565b8114610a2e57600080fd5b50565b600081359050610a4081610a1a565b92915050565b60038110610a5357600080fd5b50565b600081359050610a6581610a46565b92915050565b600080600080600060a08688031215610a8757610a866106e8565b5b600086013567ffffffffffffffff811115610aa557610aa46106ed565b5b610ab1888289016109ec565b9550506020610ac288828901610a31565b945050604086013567ffffffffffffffff811115610ae357610ae26106ed565b5b610aef888289016109ec565b9350506060610b0088828901610a56565b925050608086013567ffffffffffffffff811115610b2157610b206106ed565b5b610b2d888289016109ec565b9150509295509295909350565b7f4e487b7100000000000000000000000000000000000000000000000000000000600052602260045260246000fd5b60006002820490506001821680610b8157607f821691505b602082108103610b9457610b93610b3a565b5b50919050565b60008190508160005260206000209050919050565b60006020601f8301049050919050565b600082821b905092915050565b600060088302610bfc7fffffffffffffffffffffffffffffffffffffffffffffffffffffffffffffffff82610bbf565b610c068683610bbf565b95508019841693508086168417925050509392505050565b6000819050919050565b6000610c43610c3e610c39846106aa565b610c1e565b6106aa565b9050919050565b6000819050919050565b610c5d83610c28565b610c71610c6982610c4a565b848454610bcc565b825550505050565b600090565b610c86610c79565b610c91818484610c54565b505050565b5b81811015610cb557610caa600082610c7e565b600181019050610c97565b5050565b601f821115610cfa57610ccb81610b9a565b610cd484610baf565b81016020851015610ce3578190505b610cf7610cef85610baf565b830182610c96565b50505b505050565b600082821c905092915050565b6000610d1d60001984600802610cff565b1980831691505092915050565b6000610d368383610d0c565b9150826002028217905092915050565b610d4f8261074b565b67ffffffffffffffff811115610d6857610d676108ef565b5b610d728254610b69565b610d7d828285610cb9565b600060209050601f831160018114610db05760008415610d9e578287015190505b610da88582610d2a565b865550610e10565b601f198416610dbe86610b9a565b60005b82811015610de657848901518255600182019150602085019450602081019050610dc1565b86831015610e035784890151610dff601f891682610d0c565b8355505b6001600288020188555050505b505050505050565b7f4e487b7100000000000000000000000000000000000000000000000000000000600052601160045260246000fd5b6000610e52826106aa565b91507fffffffffffffffffffffffffffffffffffffffffffffffffffffffffffffffff8203610e8457610e83610e18565b5b60018201905091905056fea26469706673582212205926869fe779343dad37d0bbc0e6fcc7d8d361584b36bea1bb6d6e5f4b76d81b64736f6c63430008180033",
  "linkReferences": {},
  "deployedLinkReferences": {}
}