{
  "_format": "hh-sol-artifact-1",
  "contractName": "Donate",
  "sourceName": "contracts/donate.sol",
  "abi": [
    {
      "anonymous": false,
      "inputs": [
        {
          "indexed": true,
          "internalType": "uint256",
          "name": "entryId",
          "type": "uint256"
        },
        {
          "components": [
            {
              "internalType": "string",
              "name": "full_name",
              "type": "string"
            },
            {
              "internalType": "uint256",
              "name": "amount",
              "type": "uint256"
            },
            {
              "internalType": "string",
              "name": "local_address",
              "type": "string"
            },
            {
              "internalType": "string",
              "name": "pan_card",
              "type": "string"
            },
            {
              "internalType": "string",
              "name": "email",
              "type": "string"
            },
            {
              "internalType": "uint128",
              "name": "phone_number",
              "type": "uint128"
            }
          ],
          "indexed": false,
          "internalType": "struct Donate.Details",
          "name": "hasDonated",
          "type": "tuple"
        }
      ],
      "name": "EntryStored",
      "type": "event"
    },
    {
      "inputs": [
        {
          "internalType": "uint256",
          "name": "",
          "type": "uint256"
        }
      ],
      "name": "donateEntries",
      "outputs": [
        {
          "internalType": "string",
          "name": "full_name",
          "type": "string"
        },
        {
          "internalType": "uint256",
          "name": "amount",
          "type": "uint256"
        },
        {
          "internalType": "string",
          "name": "local_address",
          "type": "string"
        },
        {
          "internalType": "string",
          "name": "pan_card",
          "type": "string"
        },
        {
          "internalType": "string",
          "name": "email",
          "type": "string"
        },
        {
          "internalType": "uint128",
          "name": "phone_number",
          "type": "uint128"
        }
      ],
      "stateMutability": "view",
      "type": "function"
    },
    {
      "inputs": [],
      "name": "entryCount",
      "outputs": [
        {
          "internalType": "uint256",
          "name": "",
          "type": "uint256"
        }
      ],
      "stateMutability": "view",
      "type": "function"
    },
    {
      "inputs": [
        {
          "internalType": "uint256",
          "name": "_entryId",
          "type": "uint256"
        }
      ],
      "name": "getValues",
      "outputs": [
        {
          "internalType": "string",
          "name": "",
          "type": "string"
        },
        {
          "internalType": "uint256",
          "name": "",
          "type": "uint256"
        },
        {
          "internalType": "string",
          "name": "",
          "type": "string"
        },
        {
          "internalType": "string",
          "name": "",
          "type": "string"
        },
        {
          "internalType": "string",
          "name": "",
          "type": "string"
        },
        {
          "internalType": "uint128",
          "name": "",
          "type": "uint128"
        }
      ],
      "stateMutability": "view",
      "type": "function"
    },
    {
      "inputs": [
        {
          "internalType": "string",
          "name": "_full_name",
          "type": "string"
        },
        {
          "internalType": "uint256",
          "name": "_amount",
          "type": "uint256"
        },
        {
          "internalType": "string",
          "name": "_local_address",
          "type": "string"
        },
        {
          "internalType": "string",
          "name": "_pan_card",
          "type": "string"
        },
        {
          "internalType": "string",
          "name": "_email",
          "type": "string"
        },
        {
          "internalType": "uint128",
          "name": "_phone_number",
          "type": "uint128"
        }
      ],
      "name": "storeValues",
      "outputs": [],
      "stateMutability": "nonpayable",
      "type": "function"
    }
  ],
  "bytecode": "0x608060405234801561001057600080fd5b506110a4806100206000396000f3fe608060405234801561001057600080fd5b506004361061004c5760003560e01c80630cbb0f831461005157806356ff7d7f1461006f578063aa05acaf1461008b578063b29e522c146100c0575b600080fd5b6100596100f5565b60405161006691906107d3565b60405180910390f35b610089600480360381019061008491906109bc565b6100fb565b005b6100a560048036038101906100a09190610ab9565b610256565b6040516100b796959493929190610b74565b60405180910390f35b6100da60048036038101906100d59190610ab9565b6104ce565b6040516100ec96959493929190610b74565b60405180910390f35b60015481565b6000600154905060006040518060c00160405280898152602001888152602001878152602001868152602001858152602001846fffffffffffffffffffffffffffffffff16815250905080600080848152602001908152602001600020600082015181600001908161016d9190610dfd565b5060208201518160010155604082015181600201908161018d9190610dfd565b5060608201518160030190816101a39190610dfd565b5060808201518160040190816101b99190610dfd565b5060a08201518160050160006101000a8154816fffffffffffffffffffffffffffffffff02191690836fffffffffffffffffffffffffffffffff1602179055509050506001600081548092919061020f90610efe565b9190505550817fb5b1d6cd921285d66797e9eb7e50d8c63ec318828aa13daf7bb398d2ac0dfc8a82604051610244919061104c565b60405180910390a25050505050505050565b600060205280600052604060002060009150905080600001805461027990610c20565b80601f01602080910402602001604051908101604052809291908181526020018280546102a590610c20565b80156102f25780601f106102c7576101008083540402835291602001916102f2565b820191906000526020600020905b8154815290600101906020018083116102d557829003601f168201915b50505050509080600101549080600201805461030d90610c20565b80601f016020809104026020016040519081016040528092919081815260200182805461033990610c20565b80156103865780601f1061035b57610100808354040283529160200191610386565b820191906000526020600020905b81548152906001019060200180831161036957829003601f168201915b50505050509080600301805461039b90610c20565b80601f01602080910402602001604051908101604052809291908181526020018280546103c790610c20565b80156104145780601f106103e957610100808354040283529160200191610414565b820191906000526020600020905b8154815290600101906020018083116103f757829003601f168201915b50505050509080600401805461042990610c20565b80601f016020809104026020016040519081016040528092919081815260200182805461045590610c20565b80156104a25780601f10610477576101008083540402835291602001916104a2565b820191906000526020600020905b81548152906001019060200180831161048557829003601f168201915b5050505050908060050160009054906101000a90046fffffffffffffffffffffffffffffffff16905086565b6060600060608060606000806000888152602001908152602001600020600001600080898152602001908152602001600020600101546000808a81526020019081526020016000206002016000808b81526020019081526020016000206003016000808c81526020019081526020016000206004016000808d815260200190815260200160002060050160009054906101000a90046fffffffffffffffffffffffffffffffff1685805461058190610c20565b80601f01602080910402602001604051908101604052809291908181526020018280546105ad90610c20565b80156105fa5780601f106105cf576101008083540402835291602001916105fa565b820191906000526020600020905b8154815290600101906020018083116105dd57829003601f168201915b5050505050955083805461060d90610c20565b80601f016020809104026020016040519081016040528092919081815260200182805461063990610c20565b80156106865780601f1061065b57610100808354040283529160200191610686565b820191906000526020600020905b81548152906001019060200180831161066957829003601f168201915b5050505050935082805461069990610c20565b80601f01602080910402602001604051908101604052809291908181526020018280546106c590610c20565b80156107125780601f106106e757610100808354040283529160200191610712565b820191906000526020600020905b8154815290600101906020018083116106f557829003601f168201915b5050505050925081805461072590610c20565b80601f016020809104026020016040519081016040528092919081815260200182805461075190610c20565b801561079e5780601f106107735761010080835404028352916020019161079e565b820191906000526020600020905b81548152906001019060200180831161078157829003601f168201915b5050505050915095509550955095509550955091939550919395565b6000819050919050565b6107cd816107ba565b82525050565b60006020820190506107e860008301846107c4565b92915050565b6000604051905090565b600080fd5b600080fd5b600080fd5b600080fd5b6000601f19601f8301169050919050565b7f4e487b7100000000000000000000000000000000000000000000000000000000600052604160045260246000fd5b6108558261080c565b810181811067ffffffffffffffff821117156108745761087361081d565b5b80604052505050565b60006108876107ee565b9050610893828261084c565b919050565b600067ffffffffffffffff8211156108b3576108b261081d565b5b6108bc8261080c565b9050602081019050919050565b82818337600083830152505050565b60006108eb6108e684610898565b61087d565b90508281526020810184848401111561090757610906610807565b5b6109128482856108c9565b509392505050565b600082601f83011261092f5761092e610802565b5b813561093f8482602086016108d8565b91505092915050565b610951816107ba565b811461095c57600080fd5b50565b60008135905061096e81610948565b92915050565b60006fffffffffffffffffffffffffffffffff82169050919050565b61099981610974565b81146109a457600080fd5b50565b6000813590506109b681610990565b92915050565b60008060008060008060c087890312156109d9576109d86107f8565b5b600087013567ffffffffffffffff8111156109f7576109f66107fd565b5b610a0389828a0161091a565b9650506020610a1489828a0161095f565b955050604087013567ffffffffffffffff811115610a3557610a346107fd565b5b610a4189828a0161091a565b945050606087013567ffffffffffffffff811115610a6257610a616107fd565b5b610a6e89828a0161091a565b935050608087013567ffffffffffffffff811115610a8f57610a8e6107fd565b5b610a9b89828a0161091a565b92505060a0610aac89828a016109a7565b9150509295509295509295565b600060208284031215610acf57610ace6107f8565b5b6000610add8482850161095f565b91505092915050565b600081519050919050565b600082825260208201905092915050565b60005b83811015610b20578082015181840152602081019050610b05565b60008484015250505050565b6000610b3782610ae6565b610b418185610af1565b9350610b51818560208601610b02565b610b5a8161080c565b840191505092915050565b610b6e81610974565b82525050565b600060c0820190508181036000830152610b8e8189610b2c565b9050610b9d60208301886107c4565b8181036040830152610baf8187610b2c565b90508181036060830152610bc38186610b2c565b90508181036080830152610bd78185610b2c565b9050610be660a0830184610b65565b979650505050505050565b7f4e487b7100000000000000000000000000000000000000000000000000000000600052602260045260246000fd5b60006002820490506001821680610c3857607f821691505b602082108103610c4b57610c4a610bf1565b5b50919050565b60008190508160005260206000209050919050565b60006020601f8301049050919050565b600082821b905092915050565b600060088302610cb37fffffffffffffffffffffffffffffffffffffffffffffffffffffffffffffffff82610c76565b610cbd8683610c76565b95508019841693508086168417925050509392505050565b6000819050919050565b6000610cfa610cf5610cf0846107ba565b610cd5565b6107ba565b9050919050565b6000819050919050565b610d1483610cdf565b610d28610d2082610d01565b848454610c83565b825550505050565b600090565b610d3d610d30565b610d48818484610d0b565b505050565b5b81811015610d6c57610d61600082610d35565b600181019050610d4e565b5050565b601f821115610db157610d8281610c51565b610d8b84610c66565b81016020851015610d9a578190505b610dae610da685610c66565b830182610d4d565b50505b505050565b600082821c905092915050565b6000610dd460001984600802610db6565b1980831691505092915050565b6000610ded8383610dc3565b9150826002028217905092915050565b610e0682610ae6565b67ffffffffffffffff811115610e1f57610e1e61081d565b5b610e298254610c20565b610e34828285610d70565b600060209050601f831160018114610e675760008415610e55578287015190505b610e5f8582610de1565b865550610ec7565b601f198416610e7586610c51565b60005b82811015610e9d57848901518255600182019150602085019450602081019050610e78565b86831015610eba5784890151610eb6601f891682610dc3565b8355505b6001600288020188555050505b505050505050565b7f4e487b7100000000000000000000000000000000000000000000000000000000600052601160045260246000fd5b6000610f09826107ba565b91507fffffffffffffffffffffffffffffffffffffffffffffffffffffffffffffffff8203610f3b57610f3a610ecf565b5b600182019050919050565b600082825260208201905092915050565b6000610f6282610ae6565b610f6c8185610f46565b9350610f7c818560208601610b02565b610f858161080c565b840191505092915050565b610f99816107ba565b82525050565b610fa881610974565b82525050565b600060c0830160008301518482036000860152610fcb8282610f57565b9150506020830151610fe06020860182610f90565b5060408301518482036040860152610ff88282610f57565b915050606083015184820360608601526110128282610f57565b9150506080830151848203608086015261102c8282610f57565b91505060a083015161104160a0860182610f9f565b508091505092915050565b600060208201905081810360008301526110668184610fae565b90509291505056fea26469706673582212203f3ec62794d96d15ffc749cfc7b90fab2c06b2dd7e5b7989576dc0df62a7af5964736f6c63430008180033",
  "linkReferences": {},
  "deployedLinkReferences": {}
}