{
  "_format": "hh-sol-artifact-1",
  "contractName": "Login",
  "sourceName": "contracts/login.sol",
  "abi": [
    {
      "anonymous": false,
      "inputs": [
        {
          "indexed": false,
          "internalType": "address",
          "name": "userAddress",
          "type": "address"
        },
        {
          "indexed": false,
          "internalType": "bool",
          "name": "isAuthenticate",
          "type": "bool"
        }
      ],
      "name": "UserAuthenticate",
      "type": "event"
    },
    {
      "anonymous": false,
      "inputs": [
        {
          "indexed": false,
          "internalType": "address",
          "name": "userAddress",
          "type": "address"
        },
        {
          "indexed": false,
          "internalType": "bool",
          "name": "isExists",
          "type": "bool"
        }
      ],
      "name": "UserExists",
      "type": "event"
    },
    {
      "anonymous": false,
      "inputs": [
        {
          "indexed": false,
          "internalType": "address",
          "name": "userAddress",
          "type": "address"
        },
        {
          "indexed": false,
          "internalType": "bool",
          "name": "userRegistered",
          "type": "bool"
        }
      ],
      "name": "UserRegistered",
      "type": "event"
    },
    {
      "anonymous": false,
      "inputs": [
        {
          "indexed": false,
          "internalType": "address",
          "name": "userAddress",
          "type": "address"
        },
        {
          "indexed": false,
          "internalType": "enum Login.Role",
          "name": "isUserRole",
          "type": "uint8"
        }
      ],
      "name": "UserRole",
      "type": "event"
    },
    {
      "anonymous": false,
      "inputs": [
        {
          "indexed": false,
          "internalType": "address",
          "name": "userAddress",
          "type": "address"
        },
        {
          "indexed": false,
          "internalType": "bool",
          "name": "isupdated",
          "type": "bool"
        }
      ],
      "name": "UserUpdatePassword",
      "type": "event"
    },
    {
      "inputs": [
        {
          "internalType": "string",
          "name": "_username",
          "type": "string"
        },
        {
          "internalType": "string",
          "name": "_password",
          "type": "string"
        }
      ],
      "name": "authenticateUser",
      "outputs": [],
      "stateMutability": "nonpayable",
      "type": "function"
    },
    {
      "inputs": [],
      "name": "getUserRole",
      "outputs": [
        {
          "internalType": "bool",
          "name": "",
          "type": "bool"
        }
      ],
      "stateMutability": "nonpayable",
      "type": "function"
    },
    {
      "inputs": [
        {
          "internalType": "string",
          "name": "_name",
          "type": "string"
        },
        {
          "internalType": "uint128",
          "name": "_mobile",
          "type": "uint128"
        },
        {
          "internalType": "string",
          "name": "_country",
          "type": "string"
        },
        {
          "internalType": "string",
          "name": "_city",
          "type": "string"
        },
        {
          "internalType": "string",
          "name": "_email",
          "type": "string"
        },
        {
          "internalType": "string",
          "name": "_address",
          "type": "string"
        },
        {
          "internalType": "string",
          "name": "_username",
          "type": "string"
        },
        {
          "internalType": "string",
          "name": "_password",
          "type": "string"
        },
        {
          "internalType": "enum Login.Role",
          "name": "_role",
          "type": "uint8"
        }
      ],
      "name": "registerUser",
      "outputs": [],
      "stateMutability": "nonpayable",
      "type": "function"
    },
    {
      "inputs": [
        {
          "internalType": "string",
          "name": "newPassword",
          "type": "string"
        }
      ],
      "name": "updatePassword",
      "outputs": [],
      "stateMutability": "nonpayable",
      "type": "function"
    },
    {
      "inputs": [],
      "name": "userExists",
      "outputs": [
        {
          "internalType": "bool",
          "name": "",
          "type": "bool"
        }
      ],
      "stateMutability": "nonpayable",
      "type": "function"
    }
  ],
  "bytecode": "0x608060405234801561001057600080fd5b50611fba806100206000396000f3fe608060405234801561001057600080fd5b50600436106100575760003560e01c80634afb08a61461005c578063516a543514610078578063a9c07ae114610094578063bf04a10d146100b0578063eae6d4da146100ce575b600080fd5b6100766004803603810190610071919061172f565b6100ec565b005b610092600480360381019061008d9190611778565b6105c4565b005b6100ae60048036038101906100a9919061185d565b610a53565b005b6100b8610d46565b6040516100c59190611a06565b60405180910390f35b6100d66111ae565b6040516100e39190611a06565b60405180910390f35b6000803373ffffffffffffffffffffffffffffffffffffffff1673ffffffffffffffffffffffffffffffffffffffff16815260200190815260200160002060080160009054906101000a900460ff1661017a576040517f08c379a000000000000000000000000000000000000000000000000000000000815260040161017190611a7e565b60405180910390fd5b60008060003373ffffffffffffffffffffffffffffffffffffffff1673ffffffffffffffffffffffffffffffffffffffff168152602001908152602001600020604051806101400160405290816000820180546101d690611acd565b80601f016020809104026020016040519081016040528092919081815260200182805461020290611acd565b801561024f5780601f106102245761010080835404028352916020019161024f565b820191906000526020600020905b81548152906001019060200180831161023257829003601f168201915b505050505081526020016001820160009054906101000a90046fffffffffffffffffffffffffffffffff166fffffffffffffffffffffffffffffffff166fffffffffffffffffffffffffffffffff1681526020016002820180546102b290611acd565b80601f01602080910402602001604051908101604052809291908181526020018280546102de90611acd565b801561032b5780601f106103005761010080835404028352916020019161032b565b820191906000526020600020905b81548152906001019060200180831161030e57829003601f168201915b5050505050815260200160038201805461034490611acd565b80601f016020809104026020016040519081016040528092919081815260200182805461037090611acd565b80156103bd5780601f10610392576101008083540402835291602001916103bd565b820191906000526020600020905b8154815290600101906020018083116103a057829003601f168201915b505050505081526020016004820180546103d690611acd565b80601f016020809104026020016040519081016040528092919081815260200182805461040290611acd565b801561044f5780601f106104245761010080835404028352916020019161044f565b820191906000526020600020905b81548152906001019060200180831161043257829003601f168201915b5050505050815260200160058201805461046890611acd565b80601f016020809104026020016040519081016040528092919081815260200182805461049490611acd565b80156104e15780601f106104b6576101008083540402835291602001916104e1565b820191906000526020600020905b8154815290600101906020018083116104c457829003601f168201915b5050505050815260200160068201548152602001600782015481526020016008820160009054906101000a900460ff161515151581526020016008820160019054906101000a900460ff16600381111561053e5761053d611afe565b5b60038111156105505761054f611afe565b5b815250509050816040516020016105679190611b9e565b604051602081830303815290604052805190602001208160e00181815250507f1f62ef54c32aa4fd9e4fbbe7531ddf405a6c5e57ca3b3f536959bc49146397b43360016040516105b8929190611bf6565b60405180910390a15050565b60008060003373ffffffffffffffffffffffffffffffffffffffff1673ffffffffffffffffffffffffffffffffffffffff1681526020019081526020016000206040518061014001604052908160008201805461062090611acd565b80601f016020809104026020016040519081016040528092919081815260200182805461064c90611acd565b80156106995780601f1061066e57610100808354040283529160200191610699565b820191906000526020600020905b81548152906001019060200180831161067c57829003601f168201915b505050505081526020016001820160009054906101000a90046fffffffffffffffffffffffffffffffff166fffffffffffffffffffffffffffffffff166fffffffffffffffffffffffffffffffff1681526020016002820180546106fc90611acd565b80601f016020809104026020016040519081016040528092919081815260200182805461072890611acd565b80156107755780601f1061074a57610100808354040283529160200191610775565b820191906000526020600020905b81548152906001019060200180831161075857829003601f168201915b5050505050815260200160038201805461078e90611acd565b80601f01602080910402602001604051908101604052809291908181526020018280546107ba90611acd565b80156108075780601f106107dc57610100808354040283529160200191610807565b820191906000526020600020905b8154815290600101906020018083116107ea57829003601f168201915b5050505050815260200160048201805461082090611acd565b80601f016020809104026020016040519081016040528092919081815260200182805461084c90611acd565b80156108995780601f1061086e57610100808354040283529160200191610899565b820191906000526020600020905b81548152906001019060200180831161087c57829003601f168201915b505050505081526020016005820180546108b290611acd565b80601f01602080910402602001604051908101604052809291908181526020018280546108de90611acd565b801561092b5780601f106109005761010080835404028352916020019161092b565b820191906000526020600020905b81548152906001019060200180831161090e57829003601f168201915b5050505050815260200160068201548152602001600782015481526020016008820160009054906101000a900460ff161515151581526020016008820160019054906101000a900460ff16600381111561098857610987611afe565b5b600381111561099a57610999611afe565b5b815250509050600081610100015180156109dd5750836040516020016109c09190611b9e565b604051602081830303815290604052805190602001208260c00151145b8015610a125750826040516020016109f59190611b9e565b604051602081830303815290604052805190602001208260e00151145b90507f453ba03571d7814d12083366887645536f834b7197f249a9153c32e85955d5a33382604051610a45929190611bf6565b60405180910390a150505050565b6000803373ffffffffffffffffffffffffffffffffffffffff1673ffffffffffffffffffffffffffffffffffffffff16815260200190815260200160002060080160009054906101000a900460ff1615610ae2576040517f08c379a0000000000000000000000000000000000000000000000000000000008152600401610ad990611c6b565b60405180910390fd5b600083604051602001610af59190611b9e565b604051602081830303815290604052805190602001209050600083604051602001610b209190611b9e565b6040516020818303038152906040528051906020012090506040518061014001604052808c81526020018b6fffffffffffffffffffffffffffffffff1681526020018a8152602001898152602001888152602001878152602001838152602001828152602001600115158152602001846003811115610ba257610ba1611afe565b5b8152506000803373ffffffffffffffffffffffffffffffffffffffff1673ffffffffffffffffffffffffffffffffffffffff1681526020019081526020016000206000820151816000019081610bf89190611e41565b5060208201518160010160006101000a8154816fffffffffffffffffffffffffffffffff02191690836fffffffffffffffffffffffffffffffff1602179055506040820151816002019081610c4d9190611e41565b506060820151816003019081610c639190611e41565b506080820151816004019081610c799190611e41565b5060a0820151816005019081610c8f9190611e41565b5060c0820151816006015560e082015181600701556101008201518160080160006101000a81548160ff0219169083151502179055506101208201518160080160016101000a81548160ff02191690836003811115610cf157610cf0611afe565b5b02179055509050507f28a24a60e275c9be5babc23ecefd3240b1fcd56ef4d3fe4818437200b55ae5ff33610d236111ae565b604051610d31929190611bf6565b60405180910390a15050505050505050505050565b6000806000803373ffffffffffffffffffffffffffffffffffffffff1673ffffffffffffffffffffffffffffffffffffffff16815260200190815260200160002060405180610140016040529081600082018054610da390611acd565b80601f0160208091040260200160405190810160405280929190818152602001828054610dcf90611acd565b8015610e1c5780601f10610df157610100808354040283529160200191610e1c565b820191906000526020600020905b815481529060010190602001808311610dff57829003601f168201915b505050505081526020016001820160009054906101000a90046fffffffffffffffffffffffffffffffff166fffffffffffffffffffffffffffffffff166fffffffffffffffffffffffffffffffff168152602001600282018054610e7f90611acd565b80601f0160208091040260200160405190810160405280929190818152602001828054610eab90611acd565b8015610ef85780601f10610ecd57610100808354040283529160200191610ef8565b820191906000526020600020905b815481529060010190602001808311610edb57829003601f168201915b50505050508152602001600382018054610f1190611acd565b80601f0160208091040260200160405190810160405280929190818152602001828054610f3d90611acd565b8015610f8a5780601f10610f5f57610100808354040283529160200191610f8a565b820191906000526020600020905b815481529060010190602001808311610f6d57829003601f168201915b50505050508152602001600482018054610fa390611acd565b80601f0160208091040260200160405190810160405280929190818152602001828054610fcf90611acd565b801561101c5780601f10610ff15761010080835404028352916020019161101c565b820191906000526020600020905b815481529060010190602001808311610fff57829003601f168201915b5050505050815260200160058201805461103590611acd565b80601f016020809104026020016040519081016040528092919081815260200182805461106190611acd565b80156110ae5780601f10611083576101008083540402835291602001916110ae565b820191906000526020600020905b81548152906001019060200180831161109157829003601f168201915b5050505050815260200160068201548152602001600782015481526020016008820160009054906101000a900460ff161515151581526020016008820160019054906101000a900460ff16600381111561110b5761110a611afe565b5b600381111561111d5761111c611afe565b5b815250509050806101000151611168576040517f08c379a000000000000000000000000000000000000000000000000000000000815260040161115f90611a7e565b60405180910390fd5b7fd3cec179c7ead513b2b887c7fdf288785be2e11c0c25b69f96035a9e4301f0d03382610120015160405161119e929190611f5b565b60405180910390a1600191505090565b6000806000803373ffffffffffffffffffffffffffffffffffffffff1673ffffffffffffffffffffffffffffffffffffffff1681526020019081526020016000206040518061014001604052908160008201805461120b90611acd565b80601f016020809104026020016040519081016040528092919081815260200182805461123790611acd565b80156112845780601f1061125957610100808354040283529160200191611284565b820191906000526020600020905b81548152906001019060200180831161126757829003601f168201915b505050505081526020016001820160009054906101000a90046fffffffffffffffffffffffffffffffff166fffffffffffffffffffffffffffffffff166fffffffffffffffffffffffffffffffff1681526020016002820180546112e790611acd565b80601f016020809104026020016040519081016040528092919081815260200182805461131390611acd565b80156113605780601f1061133557610100808354040283529160200191611360565b820191906000526020600020905b81548152906001019060200180831161134357829003601f168201915b5050505050815260200160038201805461137990611acd565b80601f01602080910402602001604051908101604052809291908181526020018280546113a590611acd565b80156113f25780601f106113c7576101008083540402835291602001916113f2565b820191906000526020600020905b8154815290600101906020018083116113d557829003601f168201915b5050505050815260200160048201805461140b90611acd565b80601f016020809104026020016040519081016040528092919081815260200182805461143790611acd565b80156114845780601f1061145957610100808354040283529160200191611484565b820191906000526020600020905b81548152906001019060200180831161146757829003601f168201915b5050505050815260200160058201805461149d90611acd565b80601f01602080910402602001604051908101604052809291908181526020018280546114c990611acd565b80156115165780601f106114eb57610100808354040283529160200191611516565b820191906000526020600020905b8154815290600101906020018083116114f957829003601f168201915b5050505050815260200160068201548152602001600782015481526020016008820160009054906101000a900460ff161515151581526020016008820160019054906101000a900460ff16600381111561157357611572611afe565b5b600381111561158557611584611afe565b5b8152505090507f515a3dc8a0a14b849f9fe0b7d5911ca8ed453151a8699b329062708618593a94338261010001516040516115c1929190611bf6565b60405180910390a180610100015191505090565b6000604051905090565b600080fd5b600080fd5b600080fd5b600080fd5b6000601f19601f8301169050919050565b7f4e487b7100000000000000000000000000000000000000000000000000000000600052604160045260246000fd5b61163c826115f3565b810181811067ffffffffffffffff8211171561165b5761165a611604565b5b80604052505050565b600061166e6115d5565b905061167a8282611633565b919050565b600067ffffffffffffffff82111561169a57611699611604565b5b6116a3826115f3565b9050602081019050919050565b82818337600083830152505050565b60006116d26116cd8461167f565b611664565b9050828152602081018484840111156116ee576116ed6115ee565b5b6116f98482856116b0565b509392505050565b600082601f830112611716576117156115e9565b5b81356117268482602086016116bf565b91505092915050565b600060208284031215611745576117446115df565b5b600082013567ffffffffffffffff811115611763576117626115e4565b5b61176f84828501611701565b91505092915050565b6000806040838503121561178f5761178e6115df565b5b600083013567ffffffffffffffff8111156117ad576117ac6115e4565b5b6117b985828601611701565b925050602083013567ffffffffffffffff8111156117da576117d96115e4565b5b6117e685828601611701565b9150509250929050565b60006fffffffffffffffffffffffffffffffff82169050919050565b611815816117f0565b811461182057600080fd5b50565b6000813590506118328161180c565b92915050565b6004811061184557600080fd5b50565b60008135905061185781611838565b92915050565b60008060008060008060008060006101208a8c0312156118805761187f6115df565b5b60008a013567ffffffffffffffff81111561189e5761189d6115e4565b5b6118aa8c828d01611701565b99505060206118bb8c828d01611823565b98505060408a013567ffffffffffffffff8111156118dc576118db6115e4565b5b6118e88c828d01611701565b97505060608a013567ffffffffffffffff811115611909576119086115e4565b5b6119158c828d01611701565b96505060808a013567ffffffffffffffff811115611936576119356115e4565b5b6119428c828d01611701565b95505060a08a013567ffffffffffffffff811115611963576119626115e4565b5b61196f8c828d01611701565b94505060c08a013567ffffffffffffffff8111156119905761198f6115e4565b5b61199c8c828d01611701565b93505060e08a013567ffffffffffffffff8111156119bd576119bc6115e4565b5b6119c98c828d01611701565b9250506101006119db8c828d01611848565b9150509295985092959850929598565b60008115159050919050565b611a00816119eb565b82525050565b6000602082019050611a1b60008301846119f7565b92915050565b600082825260208201905092915050565b7f5573657220646f6573206e6f7420657869737473000000000000000000000000600082015250565b6000611a68601483611a21565b9150611a7382611a32565b602082019050919050565b60006020820190508181036000830152611a9781611a5b565b9050919050565b7f4e487b7100000000000000000000000000000000000000000000000000000000600052602260045260246000fd5b60006002820490506001821680611ae557607f821691505b602082108103611af857611af7611a9e565b5b50919050565b7f4e487b7100000000000000000000000000000000000000000000000000000000600052602160045260246000fd5b600081519050919050565b600081905092915050565b60005b83811015611b61578082015181840152602081019050611b46565b60008484015250505050565b6000611b7882611b2d565b611b828185611b38565b9350611b92818560208601611b43565b80840191505092915050565b6000611baa8284611b6d565b915081905092915050565b600073ffffffffffffffffffffffffffffffffffffffff82169050919050565b6000611be082611bb5565b9050919050565b611bf081611bd5565b82525050565b6000604082019050611c0b6000830185611be7565b611c1860208301846119f7565b9392505050565b7f5573657220616c72656164792065786973747300000000000000000000000000600082015250565b6000611c55601383611a21565b9150611c6082611c1f565b602082019050919050565b60006020820190508181036000830152611c8481611c48565b9050919050565b60008190508160005260206000209050919050565b60006020601f8301049050919050565b600082821b905092915050565b600060088302611ced7fffffffffffffffffffffffffffffffffffffffffffffffffffffffffffffffff82611cb0565b611cf78683611cb0565b95508019841693508086168417925050509392505050565b6000819050919050565b6000819050919050565b6000611d3e611d39611d3484611d0f565b611d19565b611d0f565b9050919050565b6000819050919050565b611d5883611d23565b611d6c611d6482611d45565b848454611cbd565b825550505050565b600090565b611d81611d74565b611d8c818484611d4f565b505050565b5b81811015611db057611da5600082611d79565b600181019050611d92565b5050565b601f821115611df557611dc681611c8b565b611dcf84611ca0565b81016020851015611dde578190505b611df2611dea85611ca0565b830182611d91565b50505b505050565b600082821c905092915050565b6000611e1860001984600802611dfa565b1980831691505092915050565b6000611e318383611e07565b9150826002028217905092915050565b611e4a82611b2d565b67ffffffffffffffff811115611e6357611e62611604565b5b611e6d8254611acd565b611e78828285611db4565b600060209050601f831160018114611eab5760008415611e99578287015190505b611ea38582611e25565b865550611f0b565b601f198416611eb986611c8b565b60005b82811015611ee157848901518255600182019150602085019450602081019050611ebc565b86831015611efe5784890151611efa601f891682611e07565b8355505b6001600288020188555050505b505050505050565b60048110611f2457611f23611afe565b5b50565b6000819050611f3582611f13565b919050565b6000611f4582611f27565b9050919050565b611f5581611f3a565b82525050565b6000604082019050611f706000830185611be7565b611f7d6020830184611f4c565b939250505056fea26469706673582212208d83b98103a7515717f92dd1ba46d59518eb0a21006a6e26c8fb6737ddd7b23364736f6c63430008180033",
  "linkReferences": {},
  "deployedLinkReferences": {}
}